:020000040800F2
:100000000030002091350008C9320008CB320008CA
:10001000CD320008CF320008D132000800000000C5
:10002000000000000000000000000000E11D0008CA
:10003000D332000800000000711E0008D51E000821
:10004000E1350008E1350008E1350008E135000838
:10005000E1350008E1350008E1350008E135000828
:10006000E1350008E1350008E1350008E135000818
:10007000E1350008E1350008E1350008E135000808
:10008000E1350008E1350008E1350008E1350008F8
:10009000E1350008E1350008E1350008E1350008E8
:1000A000D9320008E1350008E1350008E1350008E3
:1000B000E1350008D133000800000000E1350008F8
:1000C000E13500080000000000000000E1350008F4
:1000D00000000000E1350008E1350008E1350008C6
:1000E000E1350008E13500080000000000000000D4
:1000F0000000000000000000000000000000000000
:1001000000000000000000000000000000000000EF
:100110000000000000000000E1350008E1350008A3
:1001200000000000000000000000000000000000CF
:1001300000000000000000000000000000000000BF
:10014000E1350008E135000800000000E135000855
:10015000E1350008E1350008E1350008E135000827
:10016000E1350008E1350008000000000000000053
:10017000000000000000000000000000000000007F
:0801800000000000E135000859
:1001900010B5054C237833B9044B13B10448AFF3C1
:1001A00000800123237010BD7400002000000000B7
:1001B000943E000808B5034B1BB103490348AFF355
:1001C000008008BD0000000078000020943E000878
:1001D00001F0FF01102A2BDB10F0070F08D010F8F8
:1001E000013B013A8B422DD010F0070F42B3F6D1FC
:1001F000F0B441EA012141EA014122F007047FF015
:1002000000070023F0E80256083C85EA010586EA6B
:10021000010685FA47F5A3FA87F586FA47F6A5FAA7
:1002200087F68EB9EED1F0BC01F0FF0102F00702B3
:1002300032B110F8013B013A83EA010313B1F8D15E
:100240000020704701387047002D06BF354603383F
:10025000073815F0010F07D1013015F4807F02BF78
:10026000013015F4C03F0130F0BC0138704700BFC9
:1002700081F0004102E000BF83F0004330B54FEA57
:1002800041044FEA430594EA050F08BF90EA020FC4
:100290001FBF54EA000C55EA020C7FEA645C7FEA57
:1002A000655C00F0E2804FEA5454D4EB5555B8BF7A
:1002B0006D420CDD2C4480EA020281EA030382EAEB
:1002C000000083EA010180EA020281EA0303362D7D
:1002D00088BF30BD11F0004F4FEA01314FF4801C50
:1002E0004CEA113102D0404261EB410113F0004F62
:1002F0004FEA03334CEA133302D0524263EB430319
:1003000094EA050F00F0A780A4F10104D5F1200EB6
:100310000DDB02FA0EFC22FA05F2801841F1000111
:1003200003FA0EF2801843FA05F359410EE0A5F1E5
:1003300020050EF1200E012A03FA0EFC28BF4CF016
:10034000020C43FA05F3C01851EBE37101F00045CC
:1003500007D54FF0000EDCF1000C7EEB00006EEBD9
:100360000101B1F5801F1BD3B1F5001F0CD3490863
:100370005FEA30004FEA3C0C04F101044FEA4452BA
:1003800012F5800F80F09A80BCF1004F08BF5FEA41
:10039000500C50F1000041EB045141EA050130BD21
:1003A0005FEA4C0C404141EB010111F4801FA4F1C4
:1003B0000104E9D191F0000F04BF01460020B1FA19
:1003C00081F308BF2033A3F10B03B3F120020CDA51
:1003D0000C3208DD02F1140CC2F10C0201FA0CF02F
:1003E00021FA02F10CE002F11402D8BFC2F1200C94
:1003F00001FA02F120FA0CFCDCBF41EA0C0190404A
:10040000E41AA2BF01EB0451294330BD6FEA040492
:100410001F3C1CDA0C340EDC04F11404C4F120027D
:1004200020FA04F001FA02F340EA030021FA04F38F
:1004300045EA030130BDC4F10C04C4F1200220FAE6
:1004400002F001FA04F340EA0300294630BD21FA24
:1004500004F0294630BD94F0000F83F4801306BFEA
:1004600081F480110134013D4EE77FEA645C18BFDE
:100470007FEA655C29D094EA050F08BF90EA020F75
:1004800005D054EA000C04BF1946104630BD91EA6D
:10049000030F1EBF0021002030BD5FEA545C05D170
:1004A0004000494128BF41F0004130BD14F58004AF
:1004B0003CBF01F5801130BD01F0004545F0FE4123
:1004C00041F470014FF0000030BD7FEA645C1ABF58
:1004D000194610467FEA655C1CBF0B46024650EA8F
:1004E000013406BF52EA033591EA030F41F40021BB
:1004F00030BD00BF90F0000F04BF0021704730B541
:100500004FF4806404F132044FF000054FF0000115
:1005100050E700BF90F0000F04BF0021704730B5D6
:100520004FF4806404F1320410F0004548BF4042AB
:100530004FF000013EE700BF42004FEAE2014FEA00
:1005400031014FEA02701FBF12F07F4393F07F4FDB
:1005500081F06051704792F0000F14BF93F07F4F0D
:10056000704730B54FF4607401F0004521F0004150
:1005700020E700BF50EA010208BF704730B54FF0D6
:1005800000050AE050EA010208BF704730B511F0DB
:10059000004502D5404261EB41014FF4806404F113
:1005A00032045FEA915C3FF4DCAE4FF003025FEA95
:1005B000DC0C18BF03325FEADC0C18BF033202EB1D
:1005C000DC02C2F1200300FA03FC20FA02F001FA77
:1005D00003FE40EA0E0021FA02F11444C1E600BF16
:1005E00070B54FF0FF0C4CF4E06C1CEA11541DBFC9
:1005F0001CEA135594EA0C0F95EA0C0F00F0DEF894
:100600002C4481EA030621EA4C5123EA4C5350EA78
:10061000013518BF52EA033541F4801143F48013C9
:1006200038D0A0FB02CE4FF00005E1FB02E506F05A
:100630000042E0FB03E54FF00006E1FB03569CF0AF
:10064000000F18BF4EF0010EA4F1FF04B6F5007FB5
:1006500064F5407404D25FEA4E0E6D4146EB060627
:1006600042EAC62141EA55514FEAC52040EA5E50B0
:100670004FEACE2EB4F1FD0C88BFBCF5E06F1ED85A
:10068000BEF1004F08BF5FEA500E50F1000041EB91
:10069000045170BD06F0004646EA010140EA02003E
:1006A00081EA0301B4EB5C04C2BFD4EB0C0541EA60
:1006B000045170BD41F480114FF0000E013C00F375
:1006C000AB8014F1360FDEBF002001F0004170BD99
:1006D000C4F10004203C35DA0C341BDC04F11404B2
:1006E000C4F1200500FA05F320FA04F001FA05F23E
:1006F00040EA020001F0004221F0004110EBD3700B
:1007000021FA04F642EB06015EEA430E08BF20EA36
:10071000D37070BDC4F10C04C4F1200500FA04F3D9
:1007200020FA05F001FA04F240EA020001F000416B
:1007300010EBD37041F100015EEA430E08BF20EADE
:10074000D37070BDC4F1200500FA05F24EEA020E26
:1007500020FA04F301FA05F243EA020321FA04F055
:1007600001F0004121FA04F220EA020000EBD3700C
:100770005EEA430E08BF20EAD37070BD94F0000F0C
:100780000FD101F00046400041EB010111F4801F40
:1007900008BF013CF7D041EA060195F0000F18BFF1
:1007A000704703F00046520043EB030313F4801F2D
:1007B00008BF013DF7D043EA0603704794EA0C0FE7
:1007C0000CEA135518BF95EA0C0F0CD050EA4106FD
:1007D00018BF52EA4306D1D181EA030101F000417A
:1007E0004FF0000070BD50EA410606BF10461946A2
:1007F00052EA430619D094EA0C0F02D150EA0136AE
:1008000013D195EA0C0F05D152EA03361CBF1046EE
:1008100019460AD181EA030101F0004141F0FE418D
:1008200041F470014FF0000070BD41F0FE4141F411
:10083000780170BD70B54FF0FF0C4CF4E06C1CEA11
:1008400011541DBF1CEA135594EA0C0F95EA0C0FC6
:1008500000F0A7F8A4EB050481EA030E52EA033581
:100860004FEA013100F088804FEA03334FF08055A2
:1008700045EA131343EA12634FEA022245EA1115CF
:1008800045EA10654FEA00260EF000419D4208BF80
:10089000964244F1FD0404F5407402D25B084FEA2D
:1008A0003202B61A65EB03055B084FEA32024FF4D9
:1008B00080104FF4002CB6EB020E75EB030E22BF36
:1008C000B61A754640EA0C005B084FEA3202B6EBF6
:1008D000020E75EB030E22BFB61A754640EA5C00A5
:1008E0005B084FEA3202B6EB020E75EB030E22BF35
:1008F000B61A754640EA9C005B084FEA3202B6EB36
:10090000020E75EB030E22BFB61A754640EADC00F4
:1009100055EA060E18D04FEA051545EA16754FEA56
:1009200006164FEAC30343EA52734FEAC2025FEA74
:100930001C1CC0D111F4801F0BD141EA00014FF003
:1009400000004FF0004CB6E711F4801F04BF0143D4
:100950000020B4F1FD0C88BFBCF5E06F3FF6AFAEF0
:10096000B5EB030C04BFB6EB020C5FEA500C50F180
:10097000000041EB045170BD0EF0004E4EEA113103
:1009800014EB5C04C2BFD4EB0C0541EA045170BD0A
:1009900041F480114FF0000E013C90E645EA060E4E
:1009A0008DE60CEA135594EA0C0F08BF95EA0C0F7C
:1009B0003FF43BAF94EA0C0F0AD150EA01347FF4C4
:1009C00034AF95EA0C0F7FF425AF104619462CE79B
:1009D00095EA0C0F06D152EA03353FF4FDAE1046FE
:1009E000194622E750EA410618BF52EA43067FF44F
:1009F000C5AE50EA41047FF40DAF52EA43057FF4DF
:100A0000EBAE12E74FEA4102B2F1E04324BFB3F587
:100A1000001CDCF1FE5C0DD901F0004C4FEAC00275
:100A20004CEA5070B2F1004F40EB830008BF20F059
:100A30000100704711F0804F21D113F13872BCBF13
:100A400001F00040704741F480114FEA5252C2F168
:100A50001802C2F1200C10FA0CF320FA02F018BFB1
:100A600040F001004FEAC1234FEAD32303FA0CFC04
:100A700040EA0C0023FA02F34FEA4303CCE77FEA93
:100A8000625307D150EA01331EBF4FF0FE4040F4DD
:100A90004000704701F0004040F0FE4040F400008C
:100AA000704700BF074A08B5136843F0100313608E
:100AB000032000F01BF8002002F0CAFB02F0A8FBA4
:100AC000002008BD00200240034A044B11681B7837
:100AD0000B441360704700BFF40D0020000000209D
:100AE000014B1868704700BFF40D0020074AD36817
:100AF00023F4E0631B041B0C43F0BF63000243F4C8
:100B0000003300F4E0600343D360704700ED00E081
:100B1000174B30B5DC68C4F30224C4F10703251D6C
:100B2000042B28BF0423062D4FF0010505FA03F31B
:100B300003F1FF338CBF033C00241940A14005FAA8
:100B400004F4013C2240002842EA01024FEA02126A
:100B5000AFBF00F1604000F00F00064BD2B2A5BF5E
:100B600000F56140D2B21A5480F8002330BD00BFB6
:100B700000ED00E014ED00E04209012300F01F0049
:100B800003FA00F0014B43F82200704700E100E057
:100B90002DE9F04F85B00B68DFF86481564A019368
:100BA0004FF00F090023019CDC4002D105B0BDE8E5
:100BB000F08F012404FA03FA019C14EA0A0500F0FC
:100BC00093804C6824F0100BBBF1020F11D1DF08A9
:100BD00000EB870703F0070E3E6A4FEA8E0E09FA14
:100BE0000EFC26EA0C0C0E6906FA0EF646EA0C0616
:100BF0003E624FEA430C0327066807FA0CF7FF43EF
:100C000004F0030E3E400EFA0CFE0BF1FF3B4EEAE1
:100C10000606BBF1010F066011D8866806EA070BCD
:100C2000CE6806FA0CFE4EEA0B068660466826EA97
:100C30000A0AC4F300169E4046EA0A064660C668E1
:100C400037408E6806FA0CF63743E600C7604BD58E
:100C5000D8F8186046F00106C8F81860D8F818608F
:100C600023F0030707F1804706F0010607F58037F8
:100C7000039603F0030E039EBE684FEA8E0E09FA38
:100C80000EFCB0F1904F26EA0C0C2FD01B4EB04258
:100C90002ED006F58066B0422CD006F58066B042B4
:100CA00014BF0526032606FA0EF646EA0C06BE60B9
:100CB0001668EF4314F4803F0CBF3E402E4316608D
:100CC000566814F4003F0CBF3E402E4356609668B1
:100CD00014F4801F0CBF3E402E439660D668A402D9
:100CE00054BF3E402E43D66001335CE70026DAE76E
:100CF0000126D8E70226D6E7000401400004004898
:100D0000001002400369194214BF012000207047FF
:100D10000AB18161704781627047436959404161FE
:100D2000704700002DE9F347054618B9012002B0CD
:100D3000BDE8F0870368DA0711D42B689B0700F140
:100D400085802B681C0700F1F6802B68580700F19E
:100D50003F81EA69002A40F0D6810020E7E7BA4CDB
:100D6000636803F00C03042B07D0636803F00C03E3
:100D7000082B16D16368DF0313D54FF4003393FAC1
:100D8000A3F2216893FAA3F3B3FA83F303F01F03EA
:100D9000012202FA03F30B42CFD06B68002BCCD1B7
:100DA000C4E76A68B2F5803F25D1236843F48033F5
:100DB0002360E36AA96823F00F030B43E36252B395
:100DC000FFF78EFE4FF400368046012796FAA6F311
:100DD000226896FAA6F3B3FA83F303F01F0307FA27
:100DE00003F31342A9D1FFF77BFEA0EB08006428B0
:100DF000ECD903209BE7236832B923F480332360C6
:100E0000236823F48023D3E7B2F5A02FF5D143F470
:100E100080232360C9E7FFF763FE4FF40036804666
:100E2000012796FAA6F3226896FAA6F3B3FA83F39B
:100E300003F01F0307FA03F313423FF47EAFFFF7FB
:100E40004FFEA0EB08006428EBD9D2E77E4C636824
:100E500013F00C0F07D0636803F00C03082B22D1AA
:100E60006368DE031FD4022393FAA3F2216893FA86
:100E7000A3F3B3FA83F303F01F03012202FA03F38F
:100E80000B4203D02B6993427FF450AF2168F823C3
:100E900093FAA3F3B3FA83F26B69934021F0F8025B
:100EA000134323604DE72A6901260AB396FAA6F395
:100EB000B3FA83F303F1845303F584139B000227F1
:100EC0001E60FFF70DFE804697FAA7F3226897FA97
:100ED000A7F3B3FA83F303F01F0306FA03F31342F5
:100EE000D4D1FFF7FDFDA0EB08000228ECD980E784
:100EF00096FAA6F3B3FA83F303F1845303F584134C
:100F00009B0002271A60FFF7EBFD804697FAA7F3D4
:100F1000226897FAA7F3B3FA83F303F01F0306FAE4
:100F200003F313423FF40DAFFFF7DAFDA0EB080027
:100F30000228EBD95DE7AA69434E444901241AB35C
:100F400094FAA4F3B3FA83F30B449B0002271C60CA
:100F5000FFF7C6FD804697FAA7F397FAA7F397FA2B
:100F6000A7F3726A97FAA7F3B3FA83F303F01F03A8
:100F700004FA03F313427FF4E8AEFFF7B1FDA0EBF0
:100F800008000228E7D934E794FAA4F3B3FA83F30C
:100F90000B449B0002271A60FFF7A2FD804697FAD8
:100FA000A7F397FAA7F397FAA7F3726A97FAA7F34A
:100FB000B3FA83F303F01F0304FA03F313423FF47D
:100FC000C4AEFFF78DFDA0EB08000228E7D910E7BB
:100FD0001D4CE369D90034D4E36943F08053E361E5
:100FE000E36903F080530193019B0126184F3B688E
:100FF000DA052FD5EB68012B3DD1236A43F00103BD
:101000002362FFF76DFD02278246B9464FF00108C3
:1010100097FAA7F397FAA7F3002B6CD0226A99FAF4
:10102000A9F3B3FA83F303F01F0308FA03F313429F
:1010300058D0002E3FF48DAEE36923F08053E36176
:1010400087E60026D2E700BF001002402081901002
:10105000007000403B6843F480733B60FFF740FD45
:1010600080463B68DB05C5D4FFF73AFDA0EB0800DE
:101070006428F6D9BDE63BBB236A23F00103236253
:10108000236A23F004032362FFF72AFD0227824626
:10109000B9464FF0010897FAA7F397FAA7F373B38D
:1010A000226A99FAA9F3B3FA83F303F01F0308FA4B
:1010B00003F31342BDD0FFF713FD41F28833A0EBD9
:1010C0000A009842E7D994E6052B236A03D143F03E
:1010D0000403236291E723F001032362236A23F0D0
:1010E00004038DE7FFF7FCFC41F28833A0EB0A0014
:1010F00098428DD97DE697FAA7F3626A8FE797FA4F
:10110000A7F3626ACDE7414C636803F00C03082B38
:101110003FF40CAE022A4FF0807352D193FAA3F33E
:10112000B3FA83F303F1845303F584139B00002285
:101130001A60FFF7D5FC4FF000778046012697FA3A
:10114000A7F3226897FAA7F3B3FA83F303F01F0318
:1011500006FA03F313422DD162686B6A296A22F4FE
:1011600074120B43134363604FF0807393FAA3F33D
:10117000B3FA83F303F1845303F584139B004FF018
:1011800000751E60FFF7ACFC0126074695FAA5F333
:10119000226895FAA5F3B3FA83F303F01F0306FA66
:1011A00003F313427FF4D9ADFFF79AFCC01B02286A
:1011B000ECD91EE6FFF794FCA0EB08000228BED98C
:1011C00017E693FAA3F3B3FA83F303F1845303F519
:1011D00084139B0000221A60FFF782FC4FF0007519
:1011E0000746012695FAA5F3226895FAA5F3B3FA06
:1011F00083F303F01F0306FA03F313423FF4ADAD8C
:10120000FFF76EFCC01B0228ECD9F2E5001002408B
:1012100010B5134C616801F00C03082B1ED14FF47C
:10122000701393FAA3F301F47012B3FA83F322FA62
:1012300003F30C4AD05CE36A0F2292FAA2F2B2FAEC
:1012400082F203F00F03D340074AD25CCB034ABFBC
:10125000064B074BB3FBF2F3584310BD034810BDD8
:1012600000100240D43E0008E43E000800127A005C
:1012700000093D002DE9F0410D46044610B901205A
:10128000BDE8F0814C4A136803F007038B422ED36C
:101290002268910736D4D2073CD4474A136803F03A
:1012A00007039D4275D32268444D12F0040F7CD190
:1012B000130706D56B68226923F4605343EAC2031F
:1012C0006B60FFF7A5FF6B68F02292FAA2F2B2FA08
:1012D00082F203F0F003D340394AD35CD840394B53
:1012E0001860002001F0B4FF0020BDE8F081136811
:1012F00023F007030B431360136803F007039942BD
:10130000BDD1C5E72D49A0684B6823F0F003034326
:101310004B60C0E76268294E012A27D14FF40033A1
:1013200093FAA3F1316893FAA3F3B3FA83F303F0CA
:101330001F0302FA03F30B42A1D0736823F00303E7
:101340001A437260FFF7CCFB41F288380746736896
:10135000626803F00C03B3EB820F9ED0FFF7C0FB73
:10136000C01B4045F3D90320BDE8F081022A0CBF21
:101370004FF00073022393FAA3F1306893FAA3F3BA
:10138000B3FA83F303F01F03012101FA03F30342CD
:10139000D2E7136823F007032B431360136803F0AD
:1013A00007039D427FF46BAF7DE76B68E16823F430
:1013B000E0630B436B607BE70020024000100240BB
:1013C000323F00080C000020084B4FF4E0625B68DD
:1013D00092FAA2F2B2FA82F203F4E063D340044A32
:1013E000D35C044A1068D840704700BF0010024028
:1013F000423F00080C000020084B4FF460525B682D
:1014000092FAA2F2B2FA82F203F46053D340044A91
:10141000D35C044A1068D840704700BF00100240F7
:10142000423F00080C0000200F2303600B4B5A685A
:1014300002F0030242605A6802F0F00282605A68C9
:1014400002F4E062C2605B68DB0803F4E0630361FE
:10145000034B1B6803F007030B607047001002404A
:10146000002002400368DA6842F00102DA601A687C
:1014700042F001021A60002070470368DA6822F027
:101480000102DA60196A41F21112114208D1196A97
:1014900040F24442114202BF1A6822F001021A606F
:1014A00000207047704770477047704703681A699B
:1014B000910710B504460FD5DA6892070CD56FF086
:1014C00002021A619B6901229907027700F0858068
:1014D000FFF7E9FF0023237723681A69520710D525
:1014E000DA6850070DD56FF004021A619B69022279
:1014F00013F4407F2277204675D0FFF7D4FF0023F6
:10150000237723681A6911070FD5DA6812070CD5FB
:101510006FF008021A61DB6904229B0722772046DC
:1015200067D0FFF7C0FF0023237723681A69D0062E
:1015300010D5DA68D1060DD56FF010021A61DB699B
:10154000082213F4407F2277204658D0FFF7ABFFE4
:101550000023237723681A69D20708D5DA68D007F1
:1015600005D56FF001021A61204601F045FE23689F
:101570001A69110608D5DA68120605D56FF08002DF
:101580001A61204600F089F923681A69D00508D548
:10159000DA68110605D56FF480721A61204600F0F2
:1015A0007DF923681A69520608D5DA68500605D510
:1015B0006FF040021A612046FFF777FF23681A692F
:1015C000910622D5DA6892061FD56FF020022046D8
:1015D0001A61BDE8104000F05FB9FFF763FF2046D5
:1015E000FFF762FF76E7FFF75DFF2046FFF75CFF3E
:1015F00085E7FFF757FF2046FFF756FF93E7FFF712
:1016000051FF2046FFF750FFA2E710BD214A0368B3
:10161000904210B505D0B0F1804F02D01E4CA042D0
:101620000CD14C6823F07003904243EA040310D0BD
:10163000B0F1804F0DD0184A90420AD0174A90421C
:1016400007D002F58062904203D002F5806290429A
:1016500003D1CA6823F4407313434A6923F080031B
:10166000134303608B68C3620B688362094B984223
:101670000BD003F5A053984207D003F5806398423E
:1016800003D003F58063984201D10B690363012302
:10169000436110BD002C01400004004000400140A7
:1016A00010B50446A0B190F83D3003F0FF021BB91D
:1016B00080F83C2001F0FEFE022384F83D302068D3
:1016C000211DFFF7A3FF012384F83D30002010BD4A
:1016D000012010BD10B584680A4324F47F4442EA17
:1016E00003232343836010BD90F83C30012B70B579
:1016F00004464FF002001AD084F83D002068012310
:1017000084F83C308268524B134083600B68402B56
:1017100075D018D8102B00F08F8009D8002B00F05E
:1017200085800123002084F83D3084F83C0070BDA2
:10173000202B00F08780302BF3D1836823F07003D7
:1017400043F0370333E0702B33D01BD8502B3FD0FE
:10175000602BE6D14D68CE68016A21F0100101626C
:101760008269036A22F4704223F0A00343EA05135E
:1017700042EA063282610362836823F0700343F019
:10178000670314E0B3F5805F0CD0B3F5005FC8D1F8
:10179000CB684A688968FFF79DFF2268936843F425
:1017A000804313E0836823F4803323F007038360CE
:1017B000B7E7CB684A688968FFF78CFF22689368AF
:1017C00023F4803323F0770343F077039360A8E793
:1017D0004A68CE68016A056A25F0010505628369D9
:1017E00021F00A0123F0F00343EA06130A43836160
:1017F0000262836823F0700343F05703D7E74A6817
:10180000CE68016A056A25F001050562836921F049
:101810000A0123F0F00343EA06130A4383610262DC
:10182000836823F0700343F04703C0E7836823F025
:10183000700343F00703BAE7836823F0700343F0B3
:101840001703B4E7836823F0700343F02703AEE780
:101850008800FEFF90F83C30012B30B518D00268AC
:101860000C4D53689468AA4202BF4D6823F470037C
:101870002B430D68896823F070032B4324F0800408
:10188000536021430023916080F83C30184630BDFE
:10189000022030BD002C01407047704770470000A7
:1018A00038B5044605682169A368C26928680B43F6
:1018B00061690B434949134301400B432B606B683B
:1018C000E168206A23F440530B436B60A968A36965
:1018D00021F4306103430B43AB60414B9D4212D175
:1018E00003F558433F491B6B03F00303B2F5004F68
:1018F000CB5C3BD1082B36D8DFE803F00F21243531
:101900002D3535353000384B9D4203D003F58063CB
:101910009D425ED1B2F5004F31D1FFF755FD6168B0
:101920004A0802EB4003B3FBF1F39BB2002023F023
:101930000F022168C3F342031343CB6038BDFFF7A6
:101940005BFDECE76068430803F5740303F510538F
:10195000B3FBF0F3E9E7FFF75BFCE0E760684308FF
:1019600003F58033F4E701200023E0E7082B33D8A8
:10197000DFE803F005101B32273232322A00FFF76E
:1019800023FD636800EB5300B0FBF3F080B2E86026
:10199000002038BDFFF730FD636800EB5300B0FB5B
:1019A000F3F00F4B80B2D860F2E76268530803F59A
:1019B000F40303F59053B3FBF2F3094A9BB2D360EF
:1019C000E6E7FFF725FCE7E76268530803F5004305
:1019D000F1E7B2F5004FC6D0012038BDF369FFEF43
:1019E00000380140F43E000800440040436ADA0732
:1019F00010B506D50168846A4A6822F40032224391
:101A00004A609C0706D50168C46A4A6822F480329D
:101A100022434A60590706D50168046B4A6822F4DC
:101A2000802222434A601A0706D50168446B4A683F
:101A300022F4004222434A60DC0606D50168846B2A
:101A40008A6822F4805222438A60990606D501688A
:101A5000C46B8A6822F4005222438A605A060FD56A
:101A60000168046C4A6822F480122243B4F5801F96
:101A70004A6005D14A68446C22F4C00222434A609D
:101A80001B0606D50268816C536823F400230B43C0
:101A9000536010BD2DE9F041069D04460F461646E1
:101AA00098462168CA6937EA02030CBF0122002266
:101AB000B24202D00020BDE8F0816B1CF2D09DB98B
:101AC00023681A6822F4D0721A609A6822F0010220
:101AD0009A60202384F8693084F86A30002384F8FF
:101AE00068300320BDE8F081FEF7FAFFA0EB0800A4
:101AF0008542D6D2E4E72DE9F3411F4690F86930DC
:101B0000202B04460D4690464CD1002948D0002A8F
:101B100046D090F86830012B44D0012380F868301B
:101B20000023C366212380F86930FEF7D9FFA4F8AB
:101B300050800646A4F85280B4F8522092B262B99E
:101B40000097334640212046FFF7A4FF98B9202391
:101B500084F8693084F868000EE0B4F852300097D9
:101B6000013B9BB2A4F8523000223346802120462C
:101B7000FFF790FF18B1032002B0BDE8F081A36821
:101B80002268B3F5805F07D123692BB935F8023B92
:101B9000C3F308031385CFE72B7813850135CBE713
:101BA0000120E9E70220E7E773B504460026C66690
:101BB000FEF796FF23681B681A07054617D42368AB
:101BC0001B685B070AD56FF07E43009300222B460B
:101BD0004FF480012046FFF75DFFA0B920230020CD
:101BE00084F8693084F8680084F86A300CE06FF09B
:101BF0007E430093324603464FF400112046FFF720
:101C000049FF0028DBD0032002B070BD10B50446A8
:101C100060B390F8693003F0FF021BB980F86820C8
:101C200001F084FC2268242384F86930136823F0CF
:101C3000010313602046FFF733FE012816D0636AC4
:101C400013B12046FFF7D2FE23685A6822F490426F
:101C50005A609A6822F02A029A601A6842F00102D9
:101C600020461A60BDE81040FFF79EBF012010BD5E
:101C700008B500F059FE002008BD30B5B0F90840A5
:101C8000028A0B4690E8220085B0842C14BF0334EE
:101C9000002403A801900094284600F075FD012857
:101CA0000CBF0398002005B030BD08B5002808BF60
:101CB000012000F087FF002008BD012000F02CBCAF
:101CC00000F1080343604FF0FF32C360036100235B
:101CD00082600360704700230361704743684B6074
:101CE0009A688A609A685160996003680861013354
:101CF000036070470A68531C30B50AD103695A68FB
:101D00004A6091608B605960036808610133036029
:101D100030BD00F108035C682568AA42EFD3234672
:101D2000F9E74168826803698A608268516059688E
:101D3000884208BF5A6000220261186801381860A2
:101D4000704700000A4B1B68013308D04FF0500366
:101D500083F31188BFF36F8FBFF34F8FFEE74FF010
:101D6000500383F31188BFF36F8FBFF34F8FFEE7EC
:101D70000400002006480068006880F3088862B606
:101D800061B6BFF34F8FBFF36F8F00DF00BF00005E
:101D900008ED00E0DFF80C00016841F4700101601B
:101DA0007047000088ED00E04FF0807340F8043C7D
:101DB000074B40F80C3C21F001016FF0020340F8A2
:101DC000081C40F8202C40F8243C4438704700BFE1
:101DD000451D000800000000000000000000000099
:101DE000074B19680868B0E8F04F80F30988BFF323
:101DF0006F8F4FF0000080F311887047AFF30080C1
:101E0000B00C00204FF0500383F31188BFF36F8FA5
:101E1000BFF34F8F0A4A13680133012B13600DD1B2
:101E2000084B1B6813F0FF0F08D04FF0500383F3EB
:101E30001188BFF36F8FBFF34F8FFEE7704700BF6E
:101E40000400002004ED00E0084A136843B94FF095
:101E5000500383F31188BFF36F8FBFF34F8FFEE7FB
:101E6000013B13600BB983F3118870470400002015
:101E7000EFF30980BFF36F8F154B1A681EF0100F38
:101E800008BF20ED108A20E9F04F10604DF8043DA6
:101E90004FF0500080F31188BFF34F8FBFF36F8F67
:101EA00000F0EEFE4FF0000080F3118808BC1968C6
:101EB0000868B0E8F04F1EF0100F08BFB0EC108AB1
:101EC00080F30988BFF36F8F704700BFAFF30080C6
:101ED000B00C002008B54FF0500383F31188BFF316
:101EE0006F8FBFF34F8F00F063FD18B1034B4FF0BE
:101EF00080521A60002383F3118808BD04ED00E0CE
:101F0000064B4FF47A721B68B3FBF2F3044A013BB1
:101F10001360044B07221A60704700BF0C000020BA
:101F200014E000E010E000E0314B324A13B51968CC
:101F3000914208D14FF0500383F31188BFF36F8FA4
:101F4000BFF34F8FFEE71A682B4B9A4208D14FF030
:101F5000500383F31188BFF36F8FBFF34F8FFEE7FA
:101F6000264B1A78D2B20192FF221A701B78244AAB
:101F7000DBB28DF803309DF8033003F0500313708B
:101F8000204B07221A6000219DF80300000602F191
:101F9000FF3423D401B11A601A68120202F4E0621D
:101FA0001A60019B154ADBB21370174B1A6842F492
:101FB00070021A601A6842F070421A60FFF7A0FFC0
:101FC000124B00221A60FFF7E5FE114A136843F036
:101FD00040431360FFF7CEFEFFF7B4FE9DF80320E9
:101FE0005200D2B28DF8032001212246CCE700BF77
:101FF00000ED00E071C20F4170C20F4100E400E04B
:10200000900000209400002020ED00E0040000205B
:1020100034EF00E010B50F4B1A68824218D35C68A9
:102020001919884201BF4168184609195960446866
:1020300001198A4207D1084909688A421FBF5168BD
:102040001268091941609842026018BF186010BDFB
:102050001346E1E7A80C0020980000202DE9F0418C
:10206000044600F09DFC3E493E4D0B680BBB3E4ACA
:1020700056071FBFD01D20F0070002F540631B1A52
:1020800014BF02464FF440631344083B23F0070398
:10209000364E0B6000207060326058601860981AED
:1020A0001360334B50601860324B18604FF00043A0
:1020B0002B602F68274216D1002C41D004F1080371
:1020C00058071CBF23F00703083363B1294A166879
:1020D000B342904607D8254A15686868834204D8F9
:1020E00009688D4207D100242AE02C68002CF7D023
:1020F0002A462546F1E7296814681160C21A102A99
:102100000FD9E818410708D04FF0500383F3118826
:10211000BFF36F8FBFF34F8FFEE742606B60FFF737
:1021200079FF13496B680868F61A1F4386424FF01F
:102130000003C8F8006038BF0E6008346F602B6081
:1021400000F0C8FC630708D04FF0500383F31188F8
:10215000BFF36F8FBFF34F8FFEE72046BDE8F081DE
:10216000980000209C0C00209C000020A80C00205F
:10217000A40C0020A00C002010B5044670B3184A2F
:1021800050F8043C1268134208D14FF0500383F317
:102190001188BFF36F8FBFF34F8FFEE750F8081C15
:1021A00041B14FF0500383F31188BFF36F8FBFF33A
:1021B0004F8FFEE723EA020340F8043C00F0F0FBF7
:1021C000084A54F8043C1168A4F108000B44136059
:1021D000FFF720FFBDE8104000F07CBC10BD00BF41
:1021E0009C0C0020A00C002070B51546026C866B7C
:1021F000044642B905689DB9406800F07DFE6560FF
:102200000136A66370BD6DB9806801F00FFAA3684E
:10221000226C13446268A360934201D32368A360D5
:102220000020EDE7C06801F001FA236CE268216844
:102230005B421A448A42E2603EBF62689B18E360D8
:10224000022DEDD10EB1013EEAE73046D8E7034654
:1022500010B41A6C084662B1D9685C681144A14296
:10226000D96024BF1968D960D9685DF8044B01F0C2
:10227000DDB95DF8044B704770B50446FFF7C2FD49
:1022800094F8455004F124066DB2002D14DCFF23B0
:1022900084F84530FFF7D8FDFFF7B4FD94F84450BB
:1022A00004F110066DB2002D12DCFF2384F84430D7
:1022B000BDE87040FFF7C8BD636A002BE7D0304629
:1022C00000F032FD08B100F0BBFD013D6DB2DCE76E
:1022D0002369002BE9D0304600F026FD08B100F05C
:1022E000AFFD013D6DB2DEE738B50D46044640B99D
:1022F0004FF0500383F31188BFF36F8FBFF34F8FFD
:10230000FEE7FFF77FFD206CE36B2268A26043438A
:10231000D1181B1A13446160E3600021FF23A163FD
:1023200084F8443084F8453095B9236963B104F1E9
:10233000100000F0F9FC38B10A4B4FF080521A60DF
:10234000BFF34F8FBFF36F8FFFF77EFD012038BDC6
:1023500004F11000FFF7B4FC04F12400FFF7B0FC17
:10236000F2E700BF04ED00E070B50D46064640B947
:102370004FF0500383F31188BFF36F8FBFF34F8F7C
:10238000FEE748434830FFF769FE044638B145B9D7
:102390002060E663256401212046FFF7A5FF204663
:1023A00070BD00F148030360F3E700002DE9FF472B
:1023B000894601921F46044640B94FF0500383F30B
:1023C0001188BFF36F8FBFF34F8FFEE7002940F0F6
:1023D0008880036C002B00F084804FF0500383F35F
:1023E0001188BFF36F8FBFF34F8FFEE7019E002E62
:1023F00000F082804FF0500383F31188BFF36F8F9A
:10240000BFF34F8FFEE7019D1DB9FFF71DFD0020B3
:1024100058E016B902A800F0C9FCFFF715FD00F05E
:10242000BFFAFFF7EFFC94F84430FF2B08BF84F8A5
:10243000448094F84530FF2B08BF84F84580FFF7AF
:1024400003FD01A902A800F0C1FC002843D1FFF759
:10245000D9FCA66BE56BFFF7F7FCAE4235D10199CD
:1024600004F1100000F046FC2046FFF705FF00F0E5
:1024700031FB38B94FF08053CAF80030BFF34F8FAB
:10248000BFF36F8F0126FFF7BDFCA26BE36B9A428F
:1024900001D3022FB7D13A4649462046FFF7A4FEA2
:1024A000636A1BB104F1240000F03EFC38B1194B03
:1024B0004FF080521A60BFF34F8FBFF36F8FFFF75B
:1024C000C3FC012004B0BDE8F0872046FFF7D4FE2E
:1024D00000F000FBD6E72046FFF7CEFE00F0FAFA48
:1024E00095E7022F02D1E36B012B0AD100F0AEFC7D
:1024F00000283FF47BAF00264FF00008DFF814A05F
:10250000C1E74FF0500383F31188BFF36F8FBFF320
:102510004F8FFEE704ED00E010B5024600210120D8
:10252000FFF722FF044638B1002343600360C36015
:102530001A461946FFF73AFF204610BD2DE9FF471E
:10254000884601929946044640B94FF0500383F300
:102550001188BFF36F8FBFF34F8FFEE7002940F064
:10256000A580036C002B00F0A1804FF0500383F393
:102570001188BFF36F8FBFF34F8FFEE7019E002ED0
:1025800000F09A804FF0500383F31188BFF36F8FF0
:10259000BFF34F8FFEE7636AE660002B6DD004F156
:1025A00024005FE0019D1DB9FFF74EFC284667E05F
:1025B00016B902A800F0FAFBFFF746FC00F0F0F9AC
:1025C000FFF720FC94F84430FF2B08BF84F84470D8
:1025D00094F84530FF2B08BF84F84570FFF734FCB2
:1025E00001A902A800F0F2FB002852D1FFF70AFC73
:1025F000A56BFFF729FC002D45D1236833B9FFF700
:1026000001FC606800F032FCFFF71EFC019904F148
:10261000240000F06FFB2046FFF72EFE00F05AFA70
:1026200038B94FF08053CAF80030BFF34F8FBFF373
:102630006F8F0126FFF7E6FBA56B002DB2D0414658
:102640002046E668FFF703FEB9F1000FA3D1236827
:10265000013DA56313B900F09FFC6060236963B17D
:1026600004F1100000F060FB38B1154B4FF08052C0
:102670001A60BFF34F8FBFF36F8FFFF7E5FB0120A9
:1026800004B0BDE8F0872046FFF7F6FD00F022FA1F
:10269000CFE72046FFF7F0FD00F01CFAFFF7B2FB92
:1026A000A56BFFF7D1FB002DC3D17FE700F0CEFB78
:1026B00000283FF463AF00260027DFF804A0B9E745
:1026C00004ED00E0064A13681968064B19B94FF08B
:1026D000FF321A6070471268D268D2685268F8E711
:1026E000B40C00208C0D0020F8B51B4B1B4E1D6850
:1026F0000446306804300F46FFF713FB334640B9F9
:102700003168174EC96A32680120884022EA000207
:102710003260621C07D137B1196812480431BDE834
:10272000F840FFF7DBBA2C441A68A542546007D979
:102730000D4A10681968BDE8F8400431FFF7DABAAD
:102740000A4A106819680431FFF7D4FA084B1A686E
:10275000944238BF1C60F8BDD40D0020B00C00209E
:102760005C0D0020AC0D0020B80C0020B40C002043
:102770008C0D00204FF0500383F31188BFF36F8F4F
:10278000BFF34F8FFEE700002DE9F84F4FEA820AB2
:10279000804650460F4699460B9EFFF75FFC054664
:1027A000002800F096805420FFF758FC04460028CB
:1027B00000F08C80AAF1040A056355447B1E25F0C5
:1027C000070A00F134020F37597802F8011B13F899
:1027D000011F09B1BB42F7D10A9D062D28BF06256E
:1027E0004FF0000B271DE5626564384684F843B05E
:1027F000C4F848B0FFF76FFAC5F1070504F11800F7
:10280000FFF769FAC4F84CB02461A561646284F8EA
:1028100050B04A4641465046FFF7C6FA206006B11E
:102820003460FFF7EFFA324B324E1A68DFF8F0806F
:1028300001321A603568002D4ED134601B68012BBF
:102840001DD108EB05001435FFF73AFA8C2DF8D1AD
:10285000DFF8D090284D4846FFF732FA2846FFF7B8
:102860002FFA2648FFF72CFA2548FFF729FA2548C2
:10287000FFF726FA244BC3F80090244B1D60244A2E
:1028800024491368086801331360E26A012505FAD8
:1028900002F3034314200B6000FB02803946FFF76C
:1028A0001DFAFFF7D1FA1C4B1B6863B13368DA6A73
:1028B000E36A9A4207D2194B4FF080521A60BFF375
:1028C0004F8FBFF36F8F2846BDE8F88F2846FFF77C
:1028D00053FC4FF0FF35F6E70F4B1B68002BCED1B2
:1028E0003368DA6AE36A9A4298BF3460C7E700BF88
:1028F000480D0020B00C0020740D0020940D002025
:10290000C00D0020AC0D0020B40C0020B80C00203D
:10291000580D00205C0D0020A80D002004ED00E003
:10292000BC0C0020600D002013B5174B0193002450
:1029300000942346802215491548FFF725FF0128FA
:1029400014D14FF0500383F31188BFF36F8FBFF39F
:102950004F8F104B4FF0FF321A600F4B18600F4B28
:102960001C6002B0BDE81040FFF7DEBA013008D1AC
:102970004FF0500383F31188BFF36F8FBFF34F8F76
:10298000FEE702B010BD00BF880D0020F83E000831
:102990000D2C00088C0D0020A80D0020D40D002067
:1029A000024A136801331360704700BF540D0020C2
:1029B0002DE9F84F3C4B1B68002B53D13B4B1C6857
:1029C00001341C60BCB93A4B1A68126842B14FF02E
:1029D000500383F31188BFF36F8FBFF34F8FFEE770
:1029E000344A1968106818601160334A136801335B
:1029F0001360FFF767FE314D314F2B689C424FF05B
:102A0000000B3ED3DFF8A880DFF8C490D8F8002090
:102A1000126872BB4FF0FF322A6032E006F1040AFE
:102A20005046FFF77EF9B16A19B106F11800FFF7B9
:102A300078F9F06AD9F80030012202FA00F119435E
:102A4000204BC9F800104FF0140E51460EFB003019
:102A5000FFF744F93868F16AC26A914228BF4FF023
:102A6000010BD3E7184A1368013313604FF0000BD2
:102A700011E0D8F80020D268D66871688C42CDD2B7
:102A800029603A680F4BD16A14224A439A58022AA5
:102A900028BF4FF0010B0D4A1268002A18BF4FF0F3
:102AA000010B5846BDE8F88F540D0020D40D0020CE
:102AB000B40C0020B80C0020900D00208C0D0020DC
:102AC000B00C0020BC0C0020500D0020D80D0020C0
:102AD0005C0D00202DE9F843314C236843B94FF0D9
:102AE000500383F31188BFF36F8FBFF34F8FFEE75F
:102AF000FFF788F92368013B236024682CB1002488
:102B0000FFF7A2F92046BDE8F883264B1B68002B8F
:102B1000F5D0DFF8A890244FDFF8A480D9F8003072
:102B2000E3B90CB1FFF7CEFD204D2C6844B1204E27
:102B30000127FFF73DFF00B13760013CF9D12C6060
:102B40001B4B1B68002BDAD01A4B4FF080521A60D7
:102B5000BFF34F8FBFF36F8F0124D1E7D9F80C304B
:102B6000DC68261D04F11800FFF7DBF83046FFF79C
:102B7000D8F8E26A3968012505FA02F314200B43FC
:102B800000FB028031463B60FFF7A8F80A4BE26A7F
:102B90001B68DB6A9A4224BF054B1D60BEE700BF7D
:102BA000540D0020480D00205C0D0020500D002029
:102BB000D80D002004ED00E0B00C0020940D0020A2
:102BC000BC0C002008B540B90E4B4FF080521A6083
:102BD000BFF34F8FBFF36F8F08BD0B4B196841B127
:102BE0004FF0500383F31188BFF36F8FBFF34F8F04
:102BF000FEE7FFF7D5FEFFF777FDFFF76BFF002835
:102C0000E2D008BD04ED00E0540D002008B5174ED9
:102C1000174C236863B9174B1B68012BF8D9164B67
:102C20004FF080521A60BFF34F8FBFF36F8FEFE703
:102C3000FFF7B6FE3568FFF74DFF002DE9D0FFF72F
:102C4000E1F8F368DD68281DFFF76BF80B4A13689D
:102C5000013B13602368013B2360FFF7F5F8286B05
:102C6000FFF78AFA2846FFF787FAD2E7C00D00205F
:102C70004C0D0020BC0C002004ED00E0480D0020AD
:102C8000174B1A68174B10B512B101221A6010BD0C
:102C90001A60154B1B68B3FA83F3DBB2C3F11F0351
:102CA000142212495A4388188C5844B94FF05003E3
:102CB00083F31188BFF36F8FBFF34F8FFEE7446834
:102CC0000832646844600A44944204BF6268426007
:102CD000142202FB03135B68DA68054BD6E700BFDA
:102CE000540D0020D80D00205C0D0020BC0C0020ED
:102CF000B00C002010B50C4640B94FF0500383F3E0
:102D00001188BFF36F8FBFF34F8FFEE7054B196834
:102D10001831FEF7EFFF20460121BDE81040FFF714
:102D2000E3BC00BFB00C002038B5C368DC6844B910
:102D30004FF0500383F31188BFF36F8FBFF34F8FB2
:102D4000FEE704F118052846FEF7EBFF114B1B6860
:102D5000E3B9251D2846FEF7E4FF0F49E26A08683B
:102D60000123934003430B600C4B1420294600FBC6
:102D70000230FEF7B3FF0A4BE26A1B68DB6A9A4235
:102D800083BF084B01201860002038BD2946064843
:102D9000EFE700BF540D00205C0D0020BC0C0020AC
:102DA000B00C0020D80D0020940D002008B508B903
:102DB000FFF7E0FC034B1B680360034B1B68436099
:102DC00008BD00BF900D0020D40D002038B50D4681
:102DD000044640B94FF0500383F31188BFF36F8F5F
:102DE000BFF34F8FFEE741B94FF0500383F31188D3
:102DF000BFF36F8FBFF34F8FFEE7FFF703F80E4B64
:102E000019682B685A1C10D00C4A2068126890422E
:102E1000626801D091420DD2881A83420AD95B1AA6
:102E200013442B602046FFF7C1FF0024FFF70CF886
:102E3000204638BD0124F9E7D40D0020900D002074
:102E4000014B01221A607047D80D0020054B1B680A
:102E500033B1054B1B68002B0CBF022000207047CC
:102E600001207047A80D0020540D00202DE9F041ED
:102E70000446002838D01D4DC36A2A68D26A93429E
:102E800032D282691A4E002AA1BF2A68D26AC2F1E0
:102E9000070282611427426907FB03639A4220D12B
:102EA00000F104084046FEF73CFF124A48B9E06AC8
:102EB0004743F3592BB913680121814023EA0103E9
:102EC00013602B681168D86AE062012383400B43CA
:102ED00013601423414603FB0060BDE8F041FEF798
:102EE000FDBE2B68DB6AC362BDE8F081B00C002038
:102EF000BC0C00205C0D0020F8B5044608B9002089
:102F0000F8BD224B1B68984208D04FF0500383F362
:102F10001188BFF36F8FBFF34F8FFEE7836C43B908
:102F20004FF0500383F31188BFF36F8FBFF34F8FC0
:102F3000FEE7C16A426C013B91428364DFD0002B03
:102F4000DDD1051D2846FEF7ECFE114E114A50B9A1
:102F5000E76A1421794373582BB913680120B840EC
:102F600023EA00031360636CE362C3F10701A1610C
:102F70001168012404FA03F008431060142000FBD8
:102F800003602946FEF7AAFE2046F8BDB00C0020DB
:102F9000BC0C00205C0D0020044B1A681AB11968A3
:102FA0008A6C01328A641868704700BFB00C002038
:102FB00008B50E4C0E4D2068002319464FF0FF3225
:102FC000FFF7BCFA01230B482B70FEF74BFA0023E6
:102FD00019461A462068FFF7E9F920214FF0904082
:102FE000FDF79BFE1E20FEF760FEE4E7040E0020C6
:102FF00008000020480E002070B5134C134D9CB003
:10300000002319464FF0FF322068FFF797FA104966
:103010002B680B600B7849782A68009103A80D494A
:1030200000F018FB002306461A4619462068FFF7F1
:10303000BDF90F23B2B203A90748FEF75CFDC82013
:10304000FEF733FEDCE700BF040E0020E00D002099
:10305000000E0020FD3E0008880E0020F0B58DB067
:103060000CA8002740F82C7DFEF727FE0E4C0F4BD6
:10307000264618600FCE02AD0FC533682B60394667
:1030800002A8FEF7FAFD0A4B143418600FCC07AD06
:103090000FC523682B60394607A8FEF7EEFD054BE8
:1030A00018600DB0F0BD00BFAC3E0008040E00205B
:1030B000FC0D0020F80D002070B514228AB00DEB35
:1030C0000200002100F0BDFA2C4B2D4D5A6942F44C
:1030D00000225A615A6902F400220192019A5A6947
:1030E00042F480025A615A6902F480020292029A02
:1030F0005A6942F400325A615A6902F4003203926A
:10310000039A5A6942F480225A615B6903F480236E
:103110000493284600220821049BFDF7F9FD0022B4
:1031200020214FF09040FDF7F3FD4FF400530024B1
:10313000059305A9134B069328460794FDF728FD30
:10314000042305A928460593012606940794FDF754
:103150001FFD082305A928460593069607940894A1
:10316000FDF716FD202305A94FF090400593069624
:1031700007940894FDF70CFD0AB070BD00100240E2
:10318000000800480000211010B590B0282200214E
:1031900006A800F056FA1422002101A800F051FA06
:1031A00001230A93102302240B9306A84FF4601303
:1031B0000F9306940D94FDF7B5FD0F2301934FF483
:1031C00080620023214601A8029403930492059390
:1031D000FEF750F810B010BD08B5FDF763FCFFF71F
:1031E000D3FFFFF769FF00F083F900F02BF9FFF739
:1031F00035FFFEF73DFDFEE70268034B9A4201D121
:10320000FDF762BC704700BF00040040704700003B
:103210000E4B07B59A6942F001029A619A6902F071
:1032200001020092009ADA6942F08052DA61DB69A9
:1032300003F08053019300220F216FF00100019BE6
:10324000FDF766FC03B05DF804FB00BF0010024010
:1032500010B5014688B000221D20FDF759FC1D2045
:10326000FDF78AFC144B154CDA6942F00202DA6170
:10327000DB6903F00203029301A903A8029BFEF796
:10328000D3F8FEF7A1F80E4B236040F2E733E3607A
:1032900040000C4BB0FBF3F0013800236060204687
:1032A0002361A360FEF7FCF920B92046FEF7DAF8A7
:1032B00008B010BD0120FBE700100240080E0020FE
:1032C0000004004040420F007047FEE7FEE7FEE7C3
:1032D000FEE770470000000070B5374C2378042BE0
:1032E0000BD8DFE803F02D030F611600012208213F
:1032F0003248FDF70DFD022323703148BDE87040D0
:10330000FEF7D4B8002208212C48FDF701FD042364
:10331000F2E7042129482B4DFDF7F4FC064660B97D
:103320002B6801332B602B68B3F5166FE5DD24485D
:10333000FEF7A3F82E600323DEE700232B60DBE714
:1033400004211E481F4DFDF7DDFC01280CD12B6820
:1033500001332B602B68B3F5166FCEDD1848FEF7EE
:103360008CF800232B60E6E71548FEF786F82868FE
:1033700007EE900AF8EEE77A17EE900AFDF7DCF810
:103380000BA3D3E90023FDF72BF9FDF73BFB0E4B15
:103390001860D3ED007A0D4BFDEEE77AC3ED007AAD
:1033A00000232B600123A7E70548FEF766F8A4E792
:1033B0003D0AD7A3703DD23F080000200008004816
:1033C000480E0020E40D0020DC0D0020E00D002060
:1033D0000148FEF76BB800BF080E00201549D1F870
:1033E000883043F47003C1F88830134B1A6842F0F8
:1033F00001021A605868114A02405A601A6822F0A5
:10340000847222F480321A601A6822F480221A60D0
:103410005A6822F4FE025A60DA6A22F00F02DA6277
:10342000186B074A02401A6300229A604FF000634B
:103430008B60704700ED00E0001002400CC07FF888
:10344000CCFC00FF00B5102289B000210DEB02007A
:1034500000F0F7F81548164940F23F12002380E8C3
:10346000060002220193029303938360C26003610A
:1034700043618361FEF714F908B1FFF7C7FE4FF40B
:10348000805304A909480493FEF72EF908B1FFF709
:10349000BDFE002301A9054801930393FEF7DAF965
:1034A00008B1FFF7B3FE09B05DF804FB480E002039
:1034B0000040014007B50D4B02689A4212D103F556
:1034C000504318209A6942F480329A619B6903F450
:1034D0008033019300220521019BFDF719FB182081
:1034E000FDF74AFB03B05DF804FB00BF004001405C
:1034F00008B50C480C4B4FF4164E80E808400C22DF
:1035000000238360C360036142618361C36103621E
:103510004362FEF77BFB18B1BDE80840FFF776BEBB
:1035200008BD00BF880E00200044004010B50446CE
:1035300088B01422002103A800F083F82268134BFE
:103540009A4220D103F5E63303A9DA6942F4003246
:10355000DA61DA6902F400320192019A5A6942F49E
:1035600000325A615B6903F400330293029B0C231F
:10357000039302230493032306934FF09040072301
:103580000793FDF705FB08B010BD00BF00440040E5
:10359000DFF834D0002103E00C4B5B58435004317A
:1035A0000B480C4B42189A42F6D30B4A02E0002318
:1035B00042F8043B094B9A42F9D3FFF70FFF00F0A2
:1035C00011F8FFF709FEFEE700300020883F0008F1
:1035D000000000207400002074000020FC0E002079
:1035E000FEE7000070B50D4E0D4CA41BA410002585
:1035F000A54209D10B4E0C4C00F04CFCA41BA410AE
:103600000025A54205D170BD56F8253098470135F3
:10361000EEE756F8253098470135F2E7803F00087D
:10362000803F0008803F0008843F000810B5431E1B
:103630000A44914200D110BD11F8014B03F8014F2B
:10364000F7E702440346934200D1704703F8011B99
:10365000F9E700000EB400B59CB04FF402711DAB49
:10366000ADF81410029006906FF000410A480491E2
:1036700007914FF6FF7153F8042BADF81610006850
:10368000019302A900F066F8029B00221A701CB098
:103690005DF804EB03B07047100000202DE9F047FF
:1036A0008E689E4282460C469146984635D88A8955
:1036B00012F4906F31D0256809696F1A6569022389
:1036C00005EB450595FBF3F508F101033B449D42ED
:1036D00038BF1D46530531D5294600F02DFB06465F
:1036E00050B90C23CAF80030A38943F04003A381EA
:1036F0004FF0FF30BDE8F0873A462169FFF796FFAB
:10370000A38923F4906343F08003A381266165615C
:103710003E44ED1B2660A5604646464528BF46460A
:1037200032464946206800F09FFAA3689B1BA360BD
:1037300023681E4426600020BDE8F0872A4600F07A
:1037400059FB06460028E1D12169504600F0A6FA4F
:10375000C7E700002DE9F04F9DB0804603938B89A9
:103760001C060D4616460FD50B696BB9402100F0BB
:10377000E3FA2860286128B90C23C8F800304FF01C
:10378000FF30C5E040236B610023099320238DF8AF
:10379000293030238DF82A304FF0010B37463C4654
:1037A00014F8013B002B3CD1B7EB060A0BD0534673
:1037B000324629464046FFF771FF013000F0A380F2
:1037C000099B534409933B78002B00F09C80002315
:1037D0004FF0FF3204930793059206938DF8533010
:1037E0001A93052221785048FCF7F2FC671C049BD1
:1037F000D8B9D90644BF20228DF853201A0744BFF8
:103800002B228DF8532022782A2A16D0079A0021DD
:103810000A20274601343B78303B092B51D9C9B1E6
:1038200011E0252BC0D02746B9E73F4A801A0BFA92
:1038300000F0184304903C46D3E7039A111D126828
:103840000391002A01DB079204E0524243F0020395
:10385000079204933B782E2B0ED17B782A2B07F10D
:10386000010132D1039B1A1D1B680392002BB8BFC4
:103870004FF0FF33023705932C4C39780322204652
:10388000FCF7A6FC38B14023001B03FA00F0049BB0
:10389000034304930137397825488DF82810062210
:1038A0007E1CFCF795FC002835D0224BFBB9039B0E
:1038B000073323F0070308330393099B4B44099311
:1038C0006CE700FB02320121A3E7002305931846B1
:1038D0000A240F4601313A78303A092A03D9002BDD
:1038E000CAD00590C8E704FB00200123F1E703AB31
:1038F00000932A46104B04A94046AFF30080B0F174
:10390000FF3F8146D9D1AB895B063FF538AF0998B7
:103910001DB0BDE8F08F03AB00932A46064B04A907
:10392000404600F081F8EAE74A3F0008503F0008AF
:10393000543F0008000000009D3600082DE9F047C4
:1039400091461F468A680B69DDF820809342B8BF14
:103950001346C9F8003091F8432006460C4612B1D0
:103960000133C9F800302368990642BFD9F8003006
:103970000233C9F80030256815F0060507D104F1B7
:10398000190AE368D9F800209B1A9D4229DB94F8B4
:1039900043302268003318BF012392062ED404F16D
:1039A000430239463046C047013021D02368E568DC
:1039B000D9F8002003F00603042B08BFAD1AA36852
:1039C00022690CBF25EAE57500259342C4BF9B1A06
:1039D000ED184FF000091A344D451BD10020BDE809
:1039E000F0870123524639463046C047013003D1A3
:1039F0004FF0FF30BDE8F0870135C2E7E1185A1CEF
:103A0000302081F84300224494F8451082F8431096
:103A10000233C4E70123224639463046C04701300D
:103A2000E6D009F10109D7E72DE9F04317460A7EF0
:103A300085B06E2A984606460C460C9B01F1430E53
:103A400000F0BC801AD8632A2ED00AD8002A00F0D1
:103A5000C880582A00F08A8004F1420584F8422088
:103A60002AE0642A01D0692AF6D121681A6811F087
:103A7000800F23D0111D1960136827E0732A00F00E
:103A8000B48008D86F2A2AD0702AE5D10A6842F09B
:103A900020020A6003E0752A21D0782ADCD178223E
:103AA00084F845206E4964E01A6801F14205111D51
:103AB0001960136884F842300123A3E011F0400F2D
:103AC00002F104011960D7D0B2F90030002B03DAFB
:103AD0002D225B4284F8432062490A2217E02068C5
:103AE000196810F0800F03D0081D18600B6806E0FD
:103AF00010F0400F01F104001860F7D00B8859490D
:103B00006F2A14BF0A220822002084F84300656847
:103B1000A560002DC0F29C80206820F00400206089
:103B2000002B3FD1002D40F095807546082A0BD11F
:103B30002368DA0708D5236962689A42DEBF30231A
:103B400005F8013C05F1FF35AEEB05032361CDF827
:103B500000803B4603AA21463046FFF7EFFE0130C6
:103B600055D14FF0FF3005B0BDE8F08381F8452016
:103B70003C492268186812F0800F00F104051D60AE
:103B800001D0036802E05506FBD50388D00744BF87
:103B900042F0200222601BB9226822F0200222603B
:103BA0001022B1E77546B3FBF2F002FB1033CB5C99
:103BB00005F8013D03460028F5D1B7E708681A6803
:103BC000496910F0800F04D0101D18601368196047
:103BD00007E010F0400F02F1040018601368F6D0FF
:103BE0001980002323617546B1E71A68111D196019
:103BF0001568626800212846FCF7EAFA08B1401B04
:103C0000606063682361002384F843309FE7236981
:103C10002A4639463046C0470130A2D023689B0768
:103C200007D5002504F11909E368039A9B1A9D4200
:103C300005DBE068039B9842B8BF184693E7012371
:103C40004A4639463046C04701308AD00135EBE755
:103C5000002BA7D10B7884F8423004F1420565E7C8
:103C60006C3F00085B3F0008884210B501EB02037F
:103C700003D8421E99420CD110BD9842F9D2811846
:103C8000D21AD34200D110BD13F8014D01F8014DF5
:103C9000F7E711F8014B02F8014FEBE738B505469D
:103CA000002945D051F8043C0C1F002BB8BFE41884
:103CB00000F0D6F81F4A1368104633B963601460E9
:103CC0002846BDE8384000F0CCB8A3420CD92168A2
:103CD0006218934204BF1A685B68636004BF52189D
:103CE00022600460ECE713465A680AB1A242FAD98E
:103CF00019685818A0420BD1206801445818824214
:103D00001960DDD1106852685A6001441960D7E724
:103D100002D90C232B60D3E7206821188A4204BF04
:103D200011685268626004BF091821605C60C7E7CF
:103D300038BD00BFE80D002070B5CD1C25F003058F
:103D400008350C2D38BF0C25002D064601DBA94295
:103D500003D90C233360002070BD00F081F8234AA2
:103D60001468214691B9224C23681BB9304600F0F3
:103D700067F820602946304600F062F8431C26D1DF
:103D80000C233360304600F06CF8E4E70B685B1BF3
:103D90001AD40B2B0FD90B60CD50CC18304600F045
:103DA00060F804F10B00231D20F00700C31A1BD09C
:103DB0005A42E25070BD8C420DBF63684B6863602D
:103DC000136018BF0C46E9E70C464968CAE7C41CF3
:103DD00024F00304A04205D0211A304600F030F848
:103DE0000130CDD02560D9E770BD00BFE80D0020BF
:103DF000EC0D0020F8B5074614460E4621B91146D1
:103E0000BDE8F840FFF798BF22B9FFF747FF254606
:103E10002846F8BD00F026F884420FD921463846DE
:103E2000FFF78AFF05460028F2D031462246FFF709
:103E3000FDFB31463846FFF731FFE9E73546E7E756
:103E400038B5064C002305460846236000F014F8F8
:103E5000431C02D1236803B12B6038BDF80E00204B
:103E60007047704751F8040C0028A0F10400BCBF53
:103E70000B58C01870470000044B1968024609B976
:103E800003491960186802441A607047F00D002059
:103E9000FC0E0020F8B500BFF8BC08BC9E46704779
:0C3EA000F8B500BFF8BC08BC9E46704797
:103EAC00233F0008B12F00080000000000000000B4
:103EBC0080000000183F0008F92F0008FDFF0000EB
:103ECC00000000008000000002030405060708093A
:103EDC000A0B0C0D0E0F1010010203040506070847
:103EEC00090A0B0C0D0E0F100004080249444C4536
:103EFC000052616E67652028636D29203D20256482
:103F0C00202C202564202C2025640A005461736B1E
:103F1C0053657269616C005461736B556C7472619A
:103F2C00736F6E6963000000000000000000010266
:103F3C000304060708090000000001020304232DF6
:103F4C00302B2000686C4C00656667454647003096
:103F5C0031323334353637383941424344454600E3
:103F6C0030313233343536373839616263646566E3
:043F7C000000000041
:043F8000B50100087F
:043F8400910100089F
:103F880001000000AAAAAAAA0100000000127A00F3
:103F980014000020000000000000000000000000E5
:103FA8000000000000000000000000000000000009
:103FB80000000000000000000000000000000000F9
:103FC80000000000000000000000000000000000E9
:103FD80000000000000000000000000000000000D9
:103FE80000000000000000000000000000000000C9
:043FF80000000000C5
:040000050800359129
:00000001FF
